{
  "contractName": "Guer",
  "abi": [
    {
      "inputs": [],
      "stateMutability": "payable",
      "type": "constructor",
      "payable": true
    },
    {
      "anonymous": false,
      "inputs": [
        {
          "indexed": true,
          "internalType": "address",
          "name": "_from",
          "type": "address"
        },
        {
          "indexed": true,
          "internalType": "bytes32",
          "name": "_key1",
          "type": "bytes32"
        },
        {
          "indexed": true,
          "internalType": "bytes32",
          "name": "_key2",
          "type": "bytes32"
        }
      ],
      "name": "keyData",
      "type": "event"
    },
    {
      "inputs": [],
      "name": "doPayRoyalty",
      "outputs": [
        {
          "internalType": "bool",
          "name": "",
          "type": "bool"
        }
      ],
      "stateMutability": "payable",
      "type": "function",
      "payable": true
    },
    {
      "inputs": [],
      "name": "createNFT",
      "outputs": [
        {
          "internalType": "bool",
          "name": "",
          "type": "bool"
        }
      ],
      "stateMutability": "payable",
      "type": "function",
      "payable": true
    },
    {
      "inputs": [],
      "name": "getUserNFTs",
      "outputs": [
        {
          "internalType": "address[]",
          "name": "",
          "type": "address[]"
        }
      ],
      "stateMutability": "view",
      "type": "function",
      "constant": true
    },
    {
      "inputs": [
        {
          "internalType": "address payable",
          "name": "docAddress",
          "type": "address"
        }
      ],
      "name": "getNFTInfo",
      "outputs": [
        {
          "internalType": "address",
          "name": "",
          "type": "address"
        },
        {
          "internalType": "uint256",
          "name": "",
          "type": "uint256"
        },
        {
          "internalType": "uint256",
          "name": "",
          "type": "uint256"
        },
        {
          "internalType": "string",
          "name": "",
          "type": "string"
        }
      ],
      "stateMutability": "view",
      "type": "function",
      "constant": true
    },
    {
      "inputs": [],
      "name": "getGuerOwnerAddress",
      "outputs": [
        {
          "internalType": "address",
          "name": "",
          "type": "address"
        }
      ],
      "stateMutability": "view",
      "type": "function",
      "constant": true
    },
    {
      "inputs": [
        {
          "internalType": "address payable",
          "name": "docAddress",
          "type": "address"
        }
      ],
      "name": "getKeystore",
      "outputs": [
        {
          "internalType": "string",
          "name": "",
          "type": "string"
        }
      ],
      "stateMutability": "view",
      "type": "function",
      "constant": true
    },
    {
      "inputs": [
        {
          "internalType": "address payable",
          "name": "docAddress",
          "type": "address"
        }
      ],
      "name": "getEncryptedCount",
      "outputs": [
        {
          "internalType": "uint256",
          "name": "",
          "type": "uint256"
        }
      ],
      "stateMutability": "view",
      "type": "function",
      "constant": true
    },
    {
      "inputs": [
        {
          "internalType": "address payable",
          "name": "docAddress",
          "type": "address"
        },
        {
          "internalType": "uint256",
          "name": "_id",
          "type": "uint256"
        }
      ],
      "name": "getEncrypted",
      "outputs": [
        {
          "internalType": "string",
          "name": "",
          "type": "string"
        },
        {
          "internalType": "string",
          "name": "",
          "type": "string"
        },
        {
          "internalType": "uint256",
          "name": "",
          "type": "uint256"
        },
        {
          "internalType": "string",
          "name": "",
          "type": "string"
        },
        {
          "internalType": "string",
          "name": "",
          "type": "string"
        },
        {
          "internalType": "string",
          "name": "",
          "type": "string"
        }
      ],
      "stateMutability": "view",
      "type": "function",
      "constant": true
    },
    {
      "inputs": [
        {
          "internalType": "address payable",
          "name": "docAddress",
          "type": "address"
        },
        {
          "internalType": "string",
          "name": "_hash",
          "type": "string"
        }
      ],
      "name": "doAddKeystore",
      "outputs": [],
      "stateMutability": "nonpayable",
      "type": "function"
    },
    {
      "inputs": [
        {
          "internalType": "address payable",
          "name": "docAddress",
          "type": "address"
        },
        {
          "internalType": "string",
          "name": "_location",
          "type": "string"
        },
        {
          "internalType": "string",
          "name": "_name",
          "type": "string"
        },
        {
          "internalType": "string",
          "name": "_filetype",
          "type": "string"
        },
        {
          "internalType": "string",
          "name": "_companion",
          "type": "string"
        },
        {
          "internalType": "string",
          "name": "_usage",
          "type": "string"
        }
      ],
      "name": "doAddEncrypted",
      "outputs": [],
      "stateMutability": "nonpayable",
      "type": "function"
    },
    {
      "inputs": [
        {
          "internalType": "address",
          "name": "_sender",
          "type": "address"
        },
        {
          "internalType": "bytes32",
          "name": "_key1",
          "type": "bytes32"
        },
        {
          "internalType": "bytes32",
          "name": "_key2",
          "type": "bytes32"
        }
      ],
      "name": "postKeyData",
      "outputs": [],
      "stateMutability": "nonpayable",
      "type": "function"
    },
    {
      "inputs": [
        {
          "internalType": "address payable",
          "name": "docAddress",
          "type": "address"
        },
        {
          "internalType": "address payable",
          "name": "_receiver",
          "type": "address"
        },
        {
          "internalType": "uint256",
          "name": "_amount",
          "type": "uint256"
        }
      ],
      "name": "doTransferFunds",
      "outputs": [],
      "stateMutability": "payable",
      "type": "function",
      "payable": true
    }
  ],
  "bytecode": "0x608060405233600260006101000a81548173ffffffffffffffffffffffffffffffffffffffff021916908373ffffffffffffffffffffffffffffffffffffffff1602179055506128c9806100546000396000f3fe6080604052600436106100b4576000357c01000000000000000000000000000000000000000000000000000000009004806308c28c89146100b9578063095c7783146100e2578063568aa2a8146101225780635c41f3691461015f57806361d63a031461017b5780638a97ec2a146101995780639d3fa424146101b7578063accc448a146101f9578063b020d95214610222578063d617bcef1461024b578063e84a8aa614610288578063fdc5ab8e146102b3575b600080fd5b3480156100c557600080fd5b506100e060048036038101906100db9190610c49565b6102de565b005b3480156100ee57600080fd5b5061010960048036038101906101049190610bc9565b610369565b60405161011994939291906111a1565b60405180910390f35b34801561012e57600080fd5b5061014960048036038101906101449190610bc9565b61041e565b604051610156919061122a565b60405180910390f35b61017960048036038101906101749190610bf6565b6104c6565b005b610183610552565b604051610190919061120f565b60405180910390f35b6101a16105db565b6040516101ae919061120f565b60405180910390f35b3480156101c357600080fd5b506101de60048036038101906101d99190610dbe565b61071b565b6040516101f0969594939291906112c2565b60405180910390f35b34801561020557600080fd5b50610220600480360381019061021b9190610dfe565b6107e5565b005b34801561022e57600080fd5b5061024960048036038101906102449190610ca5565b61082f565b005b34801561025757600080fd5b50610272600480360381019061026d9190610bc9565b6108c6565b60405161027f9190611346565b60405180910390f35b34801561029457600080fd5b5061029d610969565b6040516102aa919061115d565b60405180910390f35b3480156102bf57600080fd5b506102c8610993565b6040516102d591906111ed565b60405180910390f35b8173ffffffffffffffffffffffffffffffffffffffff1663527652bd826040518263ffffffff167c0100000000000000000000000000000000000000000000000000000000028152600401610333919061122a565b600060405180830381600087803b15801561034d57600080fd5b505af1158015610361573d6000803e3d6000fd5b505050505050565b600080600060608473ffffffffffffffffffffffffffffffffffffffff1663ca1beaf36040518163ffffffff167c010000000000000000000000000000000000000000000000000000000002815260040160006040518083038186803b1580156103d257600080fd5b505afa1580156103e6573d6000803e3d6000fd5b505050506040513d6000823e3d601f19601f8201168201806040525081019061040f9190610e51565b93509350935093509193509193565b60608173ffffffffffffffffffffffffffffffffffffffff1663651d93646040518163ffffffff167c010000000000000000000000000000000000000000000000000000000002815260040160006040518083038186803b15801561048257600080fd5b505afa158015610496573d6000803e3d6000fd5b505050506040513d6000823e3d601f19601f820116820180604052508101906104bf9190610ed4565b9050919050565b8273ffffffffffffffffffffffffffffffffffffffff1663990dc9db83836040518363ffffffff167c010000000000000000000000000000000000000000000000000000000002815260040161051d929190611178565b60006040518083038186803b15801561053557600080fd5b505afa158015610549573d6000803e3d6000fd5b50505050505050565b6000655af3107a400034106105d357600260009054906101000a900473ffffffffffffffffffffffffffffffffffffffff1673ffffffffffffffffffffffffffffffffffffffff166108fc349081150290604051600060405180830381858888f193505050501580156105c9573d6000803e3d6000fd5b50600190506105d8565b600090505b90565b6000600260009054906101000a900473ffffffffffffffffffffffffffffffffffffffff1673ffffffffffffffffffffffffffffffffffffffff166108fc349081150290604051600060405180830381858888f19350505050158015610645573d6000803e3d6000fd5b50600060405161065490610a5e565b604051809103906000f080158015610670573d6000803e3d6000fd5b509050600160003373ffffffffffffffffffffffffffffffffffffffff1673ffffffffffffffffffffffffffffffffffffffff168152602001908152602001600020819080600181540180825580915050600190039060005260206000200160009091909190916101000a81548173ffffffffffffffffffffffffffffffffffffffff021916908373ffffffffffffffffffffffffffffffffffffffff160217905550600191505090565b606080600060608060608773ffffffffffffffffffffffffffffffffffffffff1663bbec47fc886040518263ffffffff167c010000000000000000000000000000000000000000000000000000000002815260040161077a9190611346565b60006040518083038186803b15801561079257600080fd5b505afa1580156107a6573d6000803e3d6000fd5b505050506040513d6000823e3d601f19601f820116820180604052508101906107cf9190610f1d565b9550955095509550955095509295509295509295565b80828473ffffffffffffffffffffffffffffffffffffffff167f631d4ad965d58ae71402429673377457243d1fa49552cfc9b698fef9dca97c7760405160405180910390a4505050565b8573ffffffffffffffffffffffffffffffffffffffff1663eae2d3c486868686866040518663ffffffff167c010000000000000000000000000000000000000000000000000000000002815260040161088c95949392919061124c565b600060405180830381600087803b1580156108a657600080fd5b505af11580156108ba573d6000803e3d6000fd5b50505050505050505050565b60008173ffffffffffffffffffffffffffffffffffffffff1663c4deca736040518163ffffffff167c010000000000000000000000000000000000000000000000000000000002815260040160206040518083038186803b15801561092a57600080fd5b505afa15801561093e573d6000803e3d6000fd5b505050506040513d601f19601f820116820180604052508101906109629190611036565b9050919050565b6000600260009054906101000a900473ffffffffffffffffffffffffffffffffffffffff16905090565b6060600160003373ffffffffffffffffffffffffffffffffffffffff1673ffffffffffffffffffffffffffffffffffffffff168152602001908152602001600020805480602002602001604051908101604052809291908181526020018280548015610a5457602002820191906000526020600020905b8160009054906101000a900473ffffffffffffffffffffffffffffffffffffffff1673ffffffffffffffffffffffffffffffffffffffff1681526020019060010190808311610a0a575b5050505050905090565b6113008061159483390190565b6000610a7e610a7984611386565b611361565b905082815260208101848484011115610a9a57610a99611517565b5b610aa5848285611470565b509392505050565b6000610ac0610abb84611386565b611361565b905082815260208101848484011115610adc57610adb611517565b5b610ae784828561147f565b509392505050565b600081359050610afe81611537565b92915050565b600081519050610b1381611537565b92915050565b600081359050610b288161154e565b92915050565b600081359050610b3d81611565565b92915050565b600082601f830112610b5857610b57611512565b5b8135610b68848260208601610a6b565b91505092915050565b600082601f830112610b8657610b85611512565b5b8151610b96848260208601610aad565b91505092915050565b600081359050610bae8161157c565b92915050565b600081519050610bc38161157c565b92915050565b600060208284031215610bdf57610bde611521565b5b6000610bed84828501610b19565b91505092915050565b600080600060608486031215610c0f57610c0e611521565b5b6000610c1d86828701610b19565b9350506020610c2e86828701610b19565b9250506040610c3f86828701610b9f565b9150509250925092565b60008060408385031215610c6057610c5f611521565b5b6000610c6e85828601610b19565b925050602083013567ffffffffffffffff811115610c8f57610c8e61151c565b5b610c9b85828601610b43565b9150509250929050565b60008060008060008060c08789031215610cc257610cc1611521565b5b6000610cd089828a01610b19565b965050602087013567ffffffffffffffff811115610cf157610cf061151c565b5b610cfd89828a01610b43565b955050604087013567ffffffffffffffff811115610d1e57610d1d61151c565b5b610d2a89828a01610b43565b945050606087013567ffffffffffffffff811115610d4b57610d4a61151c565b5b610d5789828a01610b43565b935050608087013567ffffffffffffffff811115610d7857610d7761151c565b5b610d8489828a01610b43565b92505060a087013567ffffffffffffffff811115610da557610da461151c565b5b610db189828a01610b43565b9150509295509295509295565b60008060408385031215610dd557610dd4611521565b5b6000610de385828601610b19565b9250506020610df485828601610b9f565b9150509250929050565b600080600060608486031215610e1757610e16611521565b5b6000610e2586828701610aef565b9350506020610e3686828701610b2e565b9250506040610e4786828701610b2e565b9150509250925092565b60008060008060808587031215610e6b57610e6a611521565b5b6000610e7987828801610b04565b9450506020610e8a87828801610bb4565b9350506040610e9b87828801610bb4565b925050606085015167ffffffffffffffff811115610ebc57610ebb61151c565b5b610ec887828801610b71565b91505092959194509250565b600060208284031215610eea57610ee9611521565b5b600082015167ffffffffffffffff811115610f0857610f0761151c565b5b610f1484828501610b71565b91505092915050565b60008060008060008060c08789031215610f3a57610f39611521565b5b600087015167ffffffffffffffff811115610f5857610f5761151c565b5b610f6489828a01610b71565b965050602087015167ffffffffffffffff811115610f8557610f8461151c565b5b610f9189828a01610b71565b9550506040610fa289828a01610bb4565b945050606087015167ffffffffffffffff811115610fc357610fc261151c565b5b610fcf89828a01610b71565b935050608087015167ffffffffffffffff811115610ff057610fef61151c565b5b610ffc89828a01610b71565b92505060a087015167ffffffffffffffff81111561101d5761101c61151c565b5b61102989828a01610b71565b9150509295509295509295565b60006020828403121561104c5761104b611521565b5b600061105a84828501610bb4565b91505092915050565b600061106f838361108a565b60208301905092915050565b6110848161141e565b82525050565b6110938161140c565b82525050565b6110a28161140c565b82525050565b60006110b3826113c7565b6110bd81856113ea565b93506110c8836113b7565b8060005b838110156110f95781516110e08882611063565b97506110eb836113dd565b9250506001810190506110cc565b5085935050505092915050565b61110f81611430565b82525050565b6000611120826113d2565b61112a81856113fb565b935061113a81856020860161147f565b61114381611526565b840191505092915050565b61115781611466565b82525050565b60006020820190506111726000830184611099565b92915050565b600060408201905061118d600083018561107b565b61119a602083018461114e565b9392505050565b60006080820190506111b66000830187611099565b6111c3602083018661114e565b6111d0604083018561114e565b81810360608301526111e28184611115565b905095945050505050565b6000602082019050818103600083015261120781846110a8565b905092915050565b60006020820190506112246000830184611106565b92915050565b600060208201905081810360008301526112448184611115565b905092915050565b600060a08201905081810360008301526112668188611115565b9050818103602083015261127a8187611115565b9050818103604083015261128e8186611115565b905081810360608301526112a28185611115565b905081810360808301526112b68184611115565b90509695505050505050565b600060c08201905081810360008301526112dc8189611115565b905081810360208301526112f08188611115565b90506112ff604083018761114e565b81810360608301526113118186611115565b905081810360808301526113258185611115565b905081810360a08301526113398184611115565b9050979650505050505050565b600060208201905061135b600083018461114e565b92915050565b600061136b61137c565b905061137782826114b2565b919050565b6000604051905090565b600067ffffffffffffffff8211156113a1576113a06114e3565b5b6113aa82611526565b9050602081019050919050565b6000819050602082019050919050565b600081519050919050565b600081519050919050565b6000602082019050919050565b600082825260208201905092915050565b600082825260208201905092915050565b600061141782611446565b9050919050565b600061142982611446565b9050919050565b60008115159050919050565b6000819050919050565b600073ffffffffffffffffffffffffffffffffffffffff82169050919050565b6000819050919050565b82818337600083830152505050565b60005b8381101561149d578082015181840152602081019050611482565b838111156114ac576000848401525b50505050565b6114bb82611526565b810181811067ffffffffffffffff821117156114da576114d96114e3565b5b80604052505050565b7f4e487b7100000000000000000000000000000000000000000000000000000000600052604160045260246000fd5b600080fd5b600080fd5b600080fd5b600080fd5b6000601f19601f8301169050919050565b6115408161140c565b811461154b57600080fd5b50565b6115578161141e565b811461156257600080fd5b50565b61156e8161143c565b811461157957600080fd5b50565b61158581611466565b811461159057600080fd5b5056fe6080604052306000806101000a81548173ffffffffffffffffffffffffffffffffffffffff021916908373ffffffffffffffffffffffffffffffffffffffff1602179055504260018190555033600460006101000a81548173ffffffffffffffffffffffffffffffffffffffff021916908373ffffffffffffffffffffffffffffffffffffffff1602179055506112658061009b6000396000f3fe608060405260043610610097576000357c010000000000000000000000000000000000000000000000000000000090048063527652bd146100a057806361091bce146100c9578063651d93641461010b5780636f6b52ec14610136578063990dc9db14610161578063bbec47fc1461018a578063c4deca73146101cc578063ca1beaf3146101f7578063eae2d3c4146102255761009e565b3661009e57005b005b3480156100ac57600080fd5b506100c760048036038101906100c29190610cb3565b61024e565b005b3480156100d557600080fd5b506100f060048036038101906100eb9190610e03565b610268565b60405161010296959493929190610ef5565b60405180910390f35b34801561011757600080fd5b5061012061054c565b60405161012d9190610ed3565b60405180910390f35b34801561014257600080fd5b5061014b6105de565b6040516101589190610f79565b60405180910390f35b34801561016d57600080fd5b5061018860048036038101906101839190610c73565b6105e4565b005b34801561019657600080fd5b506101b160048036038101906101ac9190610e03565b6105e8565b6040516101c396959493929190610ef5565b60405180910390f35b3480156101d857600080fd5b506101e1610948565b6040516101ee9190610f79565b60405180910390f35b34801561020357600080fd5b5061020c610952565b60405161021c9493929190610e87565b60405180910390f35b34801561023157600080fd5b5061024c60048036038101906102479190610cfc565b610a1c565b005b8060039080519060200190610264929190610b36565b5050565b600560205280600052604060002060009150905080600001805461028b906110ec565b80601f01602080910402602001604051908101604052809291908181526020018280546102b7906110ec565b80156103045780601f106102d957610100808354040283529160200191610304565b820191906000526020600020905b8154815290600101906020018083116102e757829003601f168201915b505050505090806001018054610319906110ec565b80601f0160208091040260200160405190810160405280929190818152602001828054610345906110ec565b80156103925780601f1061036757610100808354040283529160200191610392565b820191906000526020600020905b81548152906001019060200180831161037557829003601f168201915b5050505050908060020154908060030180546103ad906110ec565b80601f01602080910402602001604051908101604052809291908181526020018280546103d9906110ec565b80156104265780601f106103fb57610100808354040283529160200191610426565b820191906000526020600020905b81548152906001019060200180831161040957829003601f168201915b50505050509080600401805461043b906110ec565b80601f0160208091040260200160405190810160405280929190818152602001828054610467906110ec565b80156104b45780601f10610489576101008083540402835291602001916104b4565b820191906000526020600020905b81548152906001019060200180831161049757829003601f168201915b5050505050908060050180546104c9906110ec565b80601f01602080910402602001604051908101604052809291908181526020018280546104f5906110ec565b80156105425780601f1061051757610100808354040283529160200191610542565b820191906000526020600020905b81548152906001019060200180831161052557829003601f168201915b5050505050905086565b60606003805461055b906110ec565b80601f0160208091040260200160405190810160405280929190818152602001828054610587906110ec565b80156105d45780601f106105a9576101008083540402835291602001916105d4565b820191906000526020600020905b8154815290600101906020018083116105b757829003601f168201915b5050505050905090565b60065481565b5050565b606080600060608060606005600088815260200190815260200160002060000160056000898152602001908152602001600020600101600560008a815260200190815260200160002060020154600560008b8152602001908152602001600020600301600560008c8152602001908152602001600020600401600560008d8152602001908152602001600020600501858054610683906110ec565b80601f01602080910402602001604051908101604052809291908181526020018280546106af906110ec565b80156106fc5780601f106106d1576101008083540402835291602001916106fc565b820191906000526020600020905b8154815290600101906020018083116106df57829003601f168201915b5050505050955084805461070f906110ec565b80601f016020809104026020016040519081016040528092919081815260200182805461073b906110ec565b80156107885780601f1061075d57610100808354040283529160200191610788565b820191906000526020600020905b81548152906001019060200180831161076b57829003601f168201915b5050505050945082805461079b906110ec565b80601f01602080910402602001604051908101604052809291908181526020018280546107c7906110ec565b80156108145780601f106107e957610100808354040283529160200191610814565b820191906000526020600020905b8154815290600101906020018083116107f757829003601f168201915b50505050509250818054610827906110ec565b80601f0160208091040260200160405190810160405280929190818152602001828054610853906110ec565b80156108a05780601f10610875576101008083540402835291602001916108a0565b820191906000526020600020905b81548152906001019060200180831161088357829003601f168201915b505050505091508080546108b3906110ec565b80601f01602080910402602001604051908101604052809291908181526020018280546108df906110ec565b801561092c5780601f106109015761010080835404028352916020019161092c565b820191906000526020600020905b81548152906001019060200180831161090f57829003601f168201915b5050505050905095509550955095509550955091939550919395565b6000600654905090565b6000806000606060008054906101000a900473ffffffffffffffffffffffffffffffffffffffff16600154600654600380805461098e906110ec565b80601f01602080910402602001604051908101604052809291908181526020018280546109ba906110ec565b8015610a075780601f106109dc57610100808354040283529160200191610a07565b820191906000526020600020905b8154815290600101906020018083116109ea57829003601f168201915b50505050509050935093509350935090919293565b6001600654610a2b9190611006565b600681905550846005600060065481526020019081526020016000206000019080519060200190610a5d929190610b36565b50836005600060065481526020019081526020016000206001019080519060200190610a8a929190610b36565b504260056000600654815260200190815260200160002060020181905550826005600060065481526020019081526020016000206003019080519060200190610ad4929190610b36565b50816005600060065481526020019081526020016000206004019080519060200190610b01929190610b36565b50806005600060065481526020019081526020016000206005019080519060200190610b2e929190610b36565b505050505050565b828054610b42906110ec565b90600052602060002090601f016020900481019282610b645760008555610bab565b82601f10610b7d57805160ff1916838001178555610bab565b82800160010185558215610bab579182015b82811115610baa578251825591602001919060010190610b8f565b5b509050610bb89190610bbc565b5090565b5b80821115610bd5576000816000905550600101610bbd565b5090565b6000610bec610be784610fb9565b610f94565b905082815260208101848484011115610c0857610c076111e1565b5b610c138482856110aa565b509392505050565b600081359050610c2a81611201565b92915050565b600082601f830112610c4557610c446111dc565b5b8135610c55848260208601610bd9565b91505092915050565b600081359050610c6d81611218565b92915050565b60008060408385031215610c8a57610c896111eb565b5b6000610c9885828601610c1b565b9250506020610ca985828601610c5e565b9150509250929050565b600060208284031215610cc957610cc86111eb565b5b600082013567ffffffffffffffff811115610ce757610ce66111e6565b5b610cf384828501610c30565b91505092915050565b600080600080600060a08688031215610d1857610d176111eb565b5b600086013567ffffffffffffffff811115610d3657610d356111e6565b5b610d4288828901610c30565b955050602086013567ffffffffffffffff811115610d6357610d626111e6565b5b610d6f88828901610c30565b945050604086013567ffffffffffffffff811115610d9057610d8f6111e6565b5b610d9c88828901610c30565b935050606086013567ffffffffffffffff811115610dbd57610dbc6111e6565b5b610dc988828901610c30565b925050608086013567ffffffffffffffff811115610dea57610de96111e6565b5b610df688828901610c30565b9150509295509295909350565b600060208284031215610e1957610e186111eb565b5b6000610e2784828501610c5e565b91505092915050565b610e398161105c565b82525050565b6000610e4a82610fea565b610e548185610ff5565b9350610e648185602086016110b9565b610e6d816111f0565b840191505092915050565b610e81816110a0565b82525050565b6000608082019050610e9c6000830187610e30565b610ea96020830186610e78565b610eb66040830185610e78565b8181036060830152610ec88184610e3f565b905095945050505050565b60006020820190508181036000830152610eed8184610e3f565b905092915050565b600060c0820190508181036000830152610f0f8189610e3f565b90508181036020830152610f238188610e3f565b9050610f326040830187610e78565b8181036060830152610f448186610e3f565b90508181036080830152610f588185610e3f565b905081810360a0830152610f6c8184610e3f565b9050979650505050505050565b6000602082019050610f8e6000830184610e78565b92915050565b6000610f9e610faf565b9050610faa828261111e565b919050565b6000604051905090565b600067ffffffffffffffff821115610fd457610fd36111ad565b5b610fdd826111f0565b9050602081019050919050565b600081519050919050565b600082825260208201905092915050565b6000611011826110a0565b915061101c836110a0565b9250827fffffffffffffffffffffffffffffffffffffffffffffffffffffffffffffffff038211156110515761105061114f565b5b828201905092915050565b600061106782611080565b9050919050565b600061107982611080565b9050919050565b600073ffffffffffffffffffffffffffffffffffffffff82169050919050565b6000819050919050565b82818337600083830152505050565b60005b838110156110d75780820151818401526020810190506110bc565b838111156110e6576000848401525b50505050565b6000600282049050600182168061110457607f821691505b602082108114156111185761111761117e565b5b50919050565b611127826111f0565b810181811067ffffffffffffffff82111715611146576111456111ad565b5b80604052505050565b7f4e487b7100000000000000000000000000000000000000000000000000000000600052601160045260246000fd5b7f4e487b7100000000000000000000000000000000000000000000000000000000600052602260045260246000fd5b7f4e487b7100000000000000000000000000000000000000000000000000000000600052604160045260246000fd5b600080fd5b600080fd5b600080fd5b600080fd5b6000601f19601f8301169050919050565b61120a8161106e565b811461121557600080fd5b50565b611221816110a0565b811461122c57600080fd5b5056fea2646970667358221220b9e3791f0838e410d040fc5d6d941c4b5a2d2a1db43e4f70db01efc9cc16300d64736f6c63430008070033a26469706673582212207c378278c03e38bc24bd7863653da9dc189ec3f208ff6b8124050ad01112e37664736f6c63430008070033",
  "immutableReferences": {},
  "source": "// SPDX-License-Identifier: MIT\r\npragma solidity ^0.8.7;\r\npragma experimental ABIEncoderV2;\r\nimport './Mia.sol';\r\n\r\ncontract Guer {\r\n\r\n    address docId;\r\n    mapping(address => address[]) MiasByUser;\r\n    address payable ourWallet;\r\n    constructor() payable {\r\n        ourWallet = payable(msg.sender);\r\n    }\r\n\r\n    event keyData(\r\n        address indexed _from, //assume sender = key1\r\n        bytes32 indexed _key1,\r\n        bytes32 indexed _key2  //in the frontend code, if your address doesn't match sender, then key 2 is yours.\r\n    );\r\n\r\n    function doPayRoyalty() public payable returns(bool){\r\n        if (msg.value >= .0001 ether)\r\n        {\r\n            ourWallet.transfer(msg.value);\r\n            return true;\r\n        }\r\n        else {\r\n            return false;\r\n        }\r\n    }\r\n\r\n    function createNFT() public payable returns (bool){\r\n        ourWallet.transfer(msg.value);\r\n        Mia a = new Mia();\r\n        MiasByUser[msg.sender].push(address(a));        \r\n        return true;\r\n    }\r\n\r\n    function getUserNFTs() public view returns (address[] memory){\r\n        return MiasByUser[msg.sender];\r\n    }\r\n\r\n    function getNFTInfo(address payable docAddress) public view returns (address, uint, uint, string memory){\r\n        return Mia(docAddress).getMia();\r\n    }\r\n\r\n    function getGuerOwnerAddress() public view returns(address){\r\n        return ourWallet;\r\n    }\r\n\r\n    function getKeystore(address payable docAddress) public view returns (string memory) {\r\n        return Mia(docAddress).getKeystore();\r\n    }\r\n\r\n    function getEncryptedCount (address payable docAddress) public view returns (uint) {\r\n        return Mia(docAddress).getEncryptedCount();\r\n    }\r\n\r\n    function getEncrypted(address payable docAddress, uint _id) public view returns (string memory, string memory, uint, string memory, string memory, string memory) {\r\n        return Mia(docAddress).getEncryptedDetails(_id);\r\n    }\r\n    \r\n    function doAddKeystore(address payable docAddress, string memory _hash) public {\r\n        Mia(docAddress).addKeystore(_hash);\r\n    }\r\n\r\n    function doAddEncrypted(address payable docAddress, string memory _location, string memory _name, string memory _filetype, string memory _companion, string memory _usage) public {\r\n        Mia(docAddress).addEncrypted(_location, _name, _filetype, _companion, _usage);\r\n    }\r\n    \r\n    function postKeyData(address _sender, bytes32 _key1, bytes32 _key2) external {\r\n        emit keyData(_sender, _key1, _key2);\r\n    }\r\n\r\n    function doTransferFunds(address payable docAddress, address payable _receiver, uint256 _amount) public payable {\r\n        Mia(docAddress).transferFunds(_receiver, _amount);\r\n    }\r\n\r\n}\r\n",
  "sourcePath": "C:\\Projects\\guerpublic\\contracts\\Guer.sol",
  "compiler": {
    "name": "solc",
    "version": "0.8.7+commit.e28d00a7.Emscripten.clang"
  },
  "schemaVersion": "3.4.1",
  "updatedAt": "2021-09-09T08:15:19.802Z",
  "networkType": "ethereum",
  "devdoc": {
    "kind": "dev",
    "methods": {},
    "version": 1
  },
  "userdoc": {
    "kind": "user",
    "methods": {},
    "version": 1
  }
}