{
  "contractName": "Guer",
  "abi": [
    {
      "inputs": [],
      "stateMutability": "payable",
      "type": "constructor",
      "payable": true
    },
    {
      "anonymous": false,
      "inputs": [
        {
          "indexed": true,
          "internalType": "address",
          "name": "_from",
          "type": "address"
        },
        {
          "indexed": true,
          "internalType": "bytes32",
          "name": "_key1",
          "type": "bytes32"
        },
        {
          "indexed": true,
          "internalType": "bytes32",
          "name": "_key2",
          "type": "bytes32"
        }
      ],
      "name": "keyData",
      "type": "event"
    },
    {
      "inputs": [],
      "name": "createNFT",
      "outputs": [],
      "stateMutability": "payable",
      "type": "function",
      "payable": true
    },
    {
      "inputs": [],
      "name": "doPayRoyalty",
      "outputs": [
        {
          "internalType": "bool",
          "name": "",
          "type": "bool"
        }
      ],
      "stateMutability": "payable",
      "type": "function",
      "payable": true
    },
    {
      "inputs": [],
      "name": "getUserNFTs",
      "outputs": [
        {
          "internalType": "address[]",
          "name": "",
          "type": "address[]"
        }
      ],
      "stateMutability": "view",
      "type": "function",
      "constant": true
    },
    {
      "inputs": [
        {
          "internalType": "address payable",
          "name": "docAddress",
          "type": "address"
        }
      ],
      "name": "getNFTInfo",
      "outputs": [
        {
          "internalType": "address",
          "name": "",
          "type": "address"
        },
        {
          "internalType": "uint256",
          "name": "",
          "type": "uint256"
        },
        {
          "internalType": "uint256",
          "name": "",
          "type": "uint256"
        },
        {
          "internalType": "string",
          "name": "",
          "type": "string"
        }
      ],
      "stateMutability": "view",
      "type": "function",
      "constant": true
    },
    {
      "inputs": [],
      "name": "getGuerOwnerAddress",
      "outputs": [
        {
          "internalType": "address",
          "name": "",
          "type": "address"
        }
      ],
      "stateMutability": "view",
      "type": "function",
      "constant": true
    },
    {
      "inputs": [
        {
          "internalType": "address payable",
          "name": "docAddress",
          "type": "address"
        }
      ],
      "name": "getKeystore",
      "outputs": [
        {
          "internalType": "string",
          "name": "",
          "type": "string"
        }
      ],
      "stateMutability": "view",
      "type": "function",
      "constant": true
    },
    {
      "inputs": [
        {
          "internalType": "address payable",
          "name": "docAddress",
          "type": "address"
        },
        {
          "internalType": "uint256",
          "name": "_id",
          "type": "uint256"
        }
      ],
      "name": "getEncrypted",
      "outputs": [
        {
          "internalType": "string",
          "name": "",
          "type": "string"
        },
        {
          "internalType": "string",
          "name": "",
          "type": "string"
        },
        {
          "internalType": "uint256",
          "name": "",
          "type": "uint256"
        },
        {
          "internalType": "string",
          "name": "",
          "type": "string"
        },
        {
          "internalType": "string",
          "name": "",
          "type": "string"
        },
        {
          "internalType": "string",
          "name": "",
          "type": "string"
        }
      ],
      "stateMutability": "view",
      "type": "function",
      "constant": true
    },
    {
      "inputs": [
        {
          "internalType": "address payable",
          "name": "docAddress",
          "type": "address"
        },
        {
          "internalType": "string",
          "name": "_hash",
          "type": "string"
        }
      ],
      "name": "doAddKeystore",
      "outputs": [],
      "stateMutability": "nonpayable",
      "type": "function"
    },
    {
      "inputs": [
        {
          "internalType": "address payable",
          "name": "docAddress",
          "type": "address"
        },
        {
          "internalType": "string",
          "name": "_location",
          "type": "string"
        },
        {
          "internalType": "string",
          "name": "_name",
          "type": "string"
        },
        {
          "internalType": "string",
          "name": "_filetype",
          "type": "string"
        },
        {
          "internalType": "string",
          "name": "_companion",
          "type": "string"
        },
        {
          "internalType": "string",
          "name": "_usage",
          "type": "string"
        }
      ],
      "name": "doAddEncrypted",
      "outputs": [],
      "stateMutability": "nonpayable",
      "type": "function"
    },
    {
      "inputs": [
        {
          "internalType": "address",
          "name": "_sender",
          "type": "address"
        },
        {
          "internalType": "bytes32",
          "name": "_key1",
          "type": "bytes32"
        },
        {
          "internalType": "bytes32",
          "name": "_key2",
          "type": "bytes32"
        }
      ],
      "name": "postKeyData",
      "outputs": [],
      "stateMutability": "nonpayable",
      "type": "function"
    },
    {
      "inputs": [
        {
          "internalType": "address payable",
          "name": "docAddress",
          "type": "address"
        },
        {
          "internalType": "address payable",
          "name": "_receiver",
          "type": "address"
        },
        {
          "internalType": "uint256",
          "name": "_amount",
          "type": "uint256"
        }
      ],
      "name": "doTransferFunds",
      "outputs": [],
      "stateMutability": "payable",
      "type": "function",
      "payable": true
    }
  ],
  "bytecode": "0x608060405233600260006101000a81548173ffffffffffffffffffffffffffffffffffffffff021916908373ffffffffffffffffffffffffffffffffffffffff1602179055506126ed806100546000396000f3fe6080604052600436106100a9576000357c01000000000000000000000000000000000000000000000000000000009004806308c28c89146100ae578063095c7783146100d7578063568aa2a8146101175780635c41f3691461015457806361d63a03146101705780638a97ec2a1461018e5780639d3fa42414610198578063accc448a146101da578063b020d95214610203578063e84a8aa61461022c578063fdc5ab8e14610257575b600080fd5b3480156100ba57600080fd5b506100d560048036038101906100d09190610ada565b610282565b005b3480156100e357600080fd5b506100fe60048036038101906100f99190610a5a565b61030d565b60405161010e9493929190611005565b60405180910390f35b34801561012357600080fd5b5061013e60048036038101906101399190610a5a565b6103c2565b60405161014b919061108e565b60405180910390f35b61016e60048036038101906101699190610a87565b61046a565b005b6101786104f6565b6040516101859190611073565b60405180910390f35b61019661057f565b005b3480156101a457600080fd5b506101bf60048036038101906101ba9190610c4f565b61064f565b6040516101d196959493929190611126565b60405180910390f35b3480156101e657600080fd5b5061020160048036038101906101fc9190610c8f565b610719565b005b34801561020f57600080fd5b5061022a60048036038101906102259190610b36565b610763565b005b34801561023857600080fd5b506102416107fa565b60405161024e9190610fc1565b60405180910390f35b34801561026357600080fd5b5061026c610824565b6040516102799190611051565b60405180910390f35b8173ffffffffffffffffffffffffffffffffffffffff1663527652bd826040518263ffffffff167c01000000000000000000000000000000000000000000000000000000000281526004016102d7919061108e565b600060405180830381600087803b1580156102f157600080fd5b505af1158015610305573d6000803e3d6000fd5b505050505050565b600080600060608473ffffffffffffffffffffffffffffffffffffffff1663ca1beaf36040518163ffffffff167c010000000000000000000000000000000000000000000000000000000002815260040160006040518083038186803b15801561037657600080fd5b505afa15801561038a573d6000803e3d6000fd5b505050506040513d6000823e3d601f19601f820116820180604052508101906103b39190610ce2565b93509350935093509193509193565b60608173ffffffffffffffffffffffffffffffffffffffff1663651d93646040518163ffffffff167c010000000000000000000000000000000000000000000000000000000002815260040160006040518083038186803b15801561042657600080fd5b505afa15801561043a573d6000803e3d6000fd5b505050506040513d6000823e3d601f19601f820116820180604052508101906104639190610d65565b9050919050565b8273ffffffffffffffffffffffffffffffffffffffff1663990dc9db83836040518363ffffffff167c01000000000000000000000000000000000000000000000000000000000281526004016104c1929190610fdc565b60006040518083038186803b1580156104d957600080fd5b505afa1580156104ed573d6000803e3d6000fd5b50505050505050565b6000655af3107a4000341061057757600260009054906101000a900473ffffffffffffffffffffffffffffffffffffffff1673ffffffffffffffffffffffffffffffffffffffff166108fc349081150290604051600060405180830381858888f1935050505015801561056d573d6000803e3d6000fd5b506001905061057c565b600090505b90565b600060405161058d906108ef565b604051809103906000f0801580156105a9573d6000803e3d6000fd5b509050600160003373ffffffffffffffffffffffffffffffffffffffff1673ffffffffffffffffffffffffffffffffffffffff168152602001908152602001600020819080600181540180825580915050600190039060005260206000200160009091909190916101000a81548173ffffffffffffffffffffffffffffffffffffffff021916908373ffffffffffffffffffffffffffffffffffffffff16021790555050565b606080600060608060608773ffffffffffffffffffffffffffffffffffffffff1663bbec47fc886040518263ffffffff167c01000000000000000000000000000000000000000000000000000000000281526004016106ae91906111aa565b60006040518083038186803b1580156106c657600080fd5b505afa1580156106da573d6000803e3d6000fd5b505050506040513d6000823e3d601f19601f820116820180604052508101906107039190610dae565b9550955095509550955095509295509295509295565b80828473ffffffffffffffffffffffffffffffffffffffff167f631d4ad965d58ae71402429673377457243d1fa49552cfc9b698fef9dca97c7760405160405180910390a4505050565b8573ffffffffffffffffffffffffffffffffffffffff1663eae2d3c486868686866040518663ffffffff167c01000000000000000000000000000000000000000000000000000000000281526004016107c09594939291906110b0565b600060405180830381600087803b1580156107da57600080fd5b505af11580156107ee573d6000803e3d6000fd5b50505050505050505050565b6000600260009054906101000a900473ffffffffffffffffffffffffffffffffffffffff16905090565b6060600160003373ffffffffffffffffffffffffffffffffffffffff1673ffffffffffffffffffffffffffffffffffffffff1681526020019081526020016000208054806020026020016040519081016040528092919081815260200182805480156108e557602002820191906000526020600020905b8160009054906101000a900473ffffffffffffffffffffffffffffffffffffffff1673ffffffffffffffffffffffffffffffffffffffff168152602001906001019080831161089b575b5050505050905090565b6112c0806113f883390190565b600061090f61090a846111ea565b6111c5565b90508281526020810184848401111561092b5761092a61137b565b5b6109368482856112d4565b509392505050565b600061095161094c846111ea565b6111c5565b90508281526020810184848401111561096d5761096c61137b565b5b6109788482856112e3565b509392505050565b60008135905061098f8161139b565b92915050565b6000815190506109a48161139b565b92915050565b6000813590506109b9816113b2565b92915050565b6000813590506109ce816113c9565b92915050565b600082601f8301126109e9576109e8611376565b5b81356109f98482602086016108fc565b91505092915050565b600082601f830112610a1757610a16611376565b5b8151610a2784826020860161093e565b91505092915050565b600081359050610a3f816113e0565b92915050565b600081519050610a54816113e0565b92915050565b600060208284031215610a7057610a6f611385565b5b6000610a7e848285016109aa565b91505092915050565b600080600060608486031215610aa057610a9f611385565b5b6000610aae868287016109aa565b9350506020610abf868287016109aa565b9250506040610ad086828701610a30565b9150509250925092565b60008060408385031215610af157610af0611385565b5b6000610aff858286016109aa565b925050602083013567ffffffffffffffff811115610b2057610b1f611380565b5b610b2c858286016109d4565b9150509250929050565b60008060008060008060c08789031215610b5357610b52611385565b5b6000610b6189828a016109aa565b965050602087013567ffffffffffffffff811115610b8257610b81611380565b5b610b8e89828a016109d4565b955050604087013567ffffffffffffffff811115610baf57610bae611380565b5b610bbb89828a016109d4565b945050606087013567ffffffffffffffff811115610bdc57610bdb611380565b5b610be889828a016109d4565b935050608087013567ffffffffffffffff811115610c0957610c08611380565b5b610c1589828a016109d4565b92505060a087013567ffffffffffffffff811115610c3657610c35611380565b5b610c4289828a016109d4565b9150509295509295509295565b60008060408385031215610c6657610c65611385565b5b6000610c74858286016109aa565b9250506020610c8585828601610a30565b9150509250929050565b600080600060608486031215610ca857610ca7611385565b5b6000610cb686828701610980565b9350506020610cc7868287016109bf565b9250506040610cd8868287016109bf565b9150509250925092565b60008060008060808587031215610cfc57610cfb611385565b5b6000610d0a87828801610995565b9450506020610d1b87828801610a45565b9350506040610d2c87828801610a45565b925050606085015167ffffffffffffffff811115610d4d57610d4c611380565b5b610d5987828801610a02565b91505092959194509250565b600060208284031215610d7b57610d7a611385565b5b600082015167ffffffffffffffff811115610d9957610d98611380565b5b610da584828501610a02565b91505092915050565b60008060008060008060c08789031215610dcb57610dca611385565b5b600087015167ffffffffffffffff811115610de957610de8611380565b5b610df589828a01610a02565b965050602087015167ffffffffffffffff811115610e1657610e15611380565b5b610e2289828a01610a02565b9550506040610e3389828a01610a45565b945050606087015167ffffffffffffffff811115610e5457610e53611380565b5b610e6089828a01610a02565b935050608087015167ffffffffffffffff811115610e8157610e80611380565b5b610e8d89828a01610a02565b92505060a087015167ffffffffffffffff811115610eae57610ead611380565b5b610eba89828a01610a02565b9150509295509295509295565b6000610ed38383610eee565b60208301905092915050565b610ee881611282565b82525050565b610ef781611270565b82525050565b610f0681611270565b82525050565b6000610f178261122b565b610f21818561124e565b9350610f2c8361121b565b8060005b83811015610f5d578151610f448882610ec7565b9750610f4f83611241565b925050600181019050610f30565b5085935050505092915050565b610f7381611294565b82525050565b6000610f8482611236565b610f8e818561125f565b9350610f9e8185602086016112e3565b610fa78161138a565b840191505092915050565b610fbb816112ca565b82525050565b6000602082019050610fd66000830184610efd565b92915050565b6000604082019050610ff16000830185610edf565b610ffe6020830184610fb2565b9392505050565b600060808201905061101a6000830187610efd565b6110276020830186610fb2565b6110346040830185610fb2565b81810360608301526110468184610f79565b905095945050505050565b6000602082019050818103600083015261106b8184610f0c565b905092915050565b60006020820190506110886000830184610f6a565b92915050565b600060208201905081810360008301526110a88184610f79565b905092915050565b600060a08201905081810360008301526110ca8188610f79565b905081810360208301526110de8187610f79565b905081810360408301526110f28186610f79565b905081810360608301526111068185610f79565b9050818103608083015261111a8184610f79565b90509695505050505050565b600060c08201905081810360008301526111408189610f79565b905081810360208301526111548188610f79565b90506111636040830187610fb2565b81810360608301526111758186610f79565b905081810360808301526111898185610f79565b905081810360a083015261119d8184610f79565b9050979650505050505050565b60006020820190506111bf6000830184610fb2565b92915050565b60006111cf6111e0565b90506111db8282611316565b919050565b6000604051905090565b600067ffffffffffffffff82111561120557611204611347565b5b61120e8261138a565b9050602081019050919050565b6000819050602082019050919050565b600081519050919050565b600081519050919050565b6000602082019050919050565b600082825260208201905092915050565b600082825260208201905092915050565b600061127b826112aa565b9050919050565b600061128d826112aa565b9050919050565b60008115159050919050565b6000819050919050565b600073ffffffffffffffffffffffffffffffffffffffff82169050919050565b6000819050919050565b82818337600083830152505050565b60005b838110156113015780820151818401526020810190506112e6565b83811115611310576000848401525b50505050565b61131f8261138a565b810181811067ffffffffffffffff8211171561133e5761133d611347565b5b80604052505050565b7f4e487b7100000000000000000000000000000000000000000000000000000000600052604160045260246000fd5b600080fd5b600080fd5b600080fd5b600080fd5b6000601f19601f8301169050919050565b6113a481611270565b81146113af57600080fd5b50565b6113bb81611282565b81146113c657600080fd5b50565b6113d2816112a0565b81146113dd57600080fd5b50565b6113e9816112ca565b81146113f457600080fd5b5056fe6080604052306000806101000a81548173ffffffffffffffffffffffffffffffffffffffff021916908373ffffffffffffffffffffffffffffffffffffffff1602179055504260018190555033600460006101000a81548173ffffffffffffffffffffffffffffffffffffffff021916908373ffffffffffffffffffffffffffffffffffffffff1602179055506112258061009b6000396000f3fe60806040526004361061008c576000357c010000000000000000000000000000000000000000000000000000000090048063527652bd1461009557806361091bce146100be578063651d9364146101005780636f6b52ec1461012b578063990dc9db14610156578063bbec47fc1461017f578063ca1beaf3146101c1578063eae2d3c4146101ef57610093565b3661009357005b005b3480156100a157600080fd5b506100bc60048036038101906100b79190610c73565b610218565b005b3480156100ca57600080fd5b506100e560048036038101906100e09190610dc3565b610232565b6040516100f796959493929190610eb5565b60405180910390f35b34801561010c57600080fd5b50610115610516565b6040516101229190610e93565b60405180910390f35b34801561013757600080fd5b506101406105a8565b60405161014d9190610f39565b60405180910390f35b34801561016257600080fd5b5061017d60048036038101906101789190610c33565b6105ae565b005b34801561018b57600080fd5b506101a660048036038101906101a19190610dc3565b6105b2565b6040516101b896959493929190610eb5565b60405180910390f35b3480156101cd57600080fd5b506101d6610912565b6040516101e69493929190610e47565b60405180910390f35b3480156101fb57600080fd5b5061021660048036038101906102119190610cbc565b6109dc565b005b806003908051906020019061022e929190610af6565b5050565b6005602052806000526040600020600091509050806000018054610255906110ac565b80601f0160208091040260200160405190810160405280929190818152602001828054610281906110ac565b80156102ce5780601f106102a3576101008083540402835291602001916102ce565b820191906000526020600020905b8154815290600101906020018083116102b157829003601f168201915b5050505050908060010180546102e3906110ac565b80601f016020809104026020016040519081016040528092919081815260200182805461030f906110ac565b801561035c5780601f106103315761010080835404028352916020019161035c565b820191906000526020600020905b81548152906001019060200180831161033f57829003601f168201915b505050505090806002015490806003018054610377906110ac565b80601f01602080910402602001604051908101604052809291908181526020018280546103a3906110ac565b80156103f05780601f106103c5576101008083540402835291602001916103f0565b820191906000526020600020905b8154815290600101906020018083116103d357829003601f168201915b505050505090806004018054610405906110ac565b80601f0160208091040260200160405190810160405280929190818152602001828054610431906110ac565b801561047e5780601f106104535761010080835404028352916020019161047e565b820191906000526020600020905b81548152906001019060200180831161046157829003601f168201915b505050505090806005018054610493906110ac565b80601f01602080910402602001604051908101604052809291908181526020018280546104bf906110ac565b801561050c5780601f106104e15761010080835404028352916020019161050c565b820191906000526020600020905b8154815290600101906020018083116104ef57829003601f168201915b5050505050905086565b606060038054610525906110ac565b80601f0160208091040260200160405190810160405280929190818152602001828054610551906110ac565b801561059e5780601f106105735761010080835404028352916020019161059e565b820191906000526020600020905b81548152906001019060200180831161058157829003601f168201915b5050505050905090565b60065481565b5050565b606080600060608060606005600088815260200190815260200160002060000160056000898152602001908152602001600020600101600560008a815260200190815260200160002060020154600560008b8152602001908152602001600020600301600560008c8152602001908152602001600020600401600560008d815260200190815260200160002060050185805461064d906110ac565b80601f0160208091040260200160405190810160405280929190818152602001828054610679906110ac565b80156106c65780601f1061069b576101008083540402835291602001916106c6565b820191906000526020600020905b8154815290600101906020018083116106a957829003601f168201915b505050505095508480546106d9906110ac565b80601f0160208091040260200160405190810160405280929190818152602001828054610705906110ac565b80156107525780601f1061072757610100808354040283529160200191610752565b820191906000526020600020905b81548152906001019060200180831161073557829003601f168201915b50505050509450828054610765906110ac565b80601f0160208091040260200160405190810160405280929190818152602001828054610791906110ac565b80156107de5780601f106107b3576101008083540402835291602001916107de565b820191906000526020600020905b8154815290600101906020018083116107c157829003601f168201915b505050505092508180546107f1906110ac565b80601f016020809104026020016040519081016040528092919081815260200182805461081d906110ac565b801561086a5780601f1061083f5761010080835404028352916020019161086a565b820191906000526020600020905b81548152906001019060200180831161084d57829003601f168201915b5050505050915080805461087d906110ac565b80601f01602080910402602001604051908101604052809291908181526020018280546108a9906110ac565b80156108f65780601f106108cb576101008083540402835291602001916108f6565b820191906000526020600020905b8154815290600101906020018083116108d957829003601f168201915b5050505050905095509550955095509550955091939550919395565b6000806000606060008054906101000a900473ffffffffffffffffffffffffffffffffffffffff16600154600654600380805461094e906110ac565b80601f016020809104026020016040519081016040528092919081815260200182805461097a906110ac565b80156109c75780601f1061099c576101008083540402835291602001916109c7565b820191906000526020600020905b8154815290600101906020018083116109aa57829003601f168201915b50505050509050935093509350935090919293565b60016006546109eb9190610fc6565b600681905550846005600060065481526020019081526020016000206000019080519060200190610a1d929190610af6565b50836005600060065481526020019081526020016000206001019080519060200190610a4a929190610af6565b504260056000600654815260200190815260200160002060020181905550826005600060065481526020019081526020016000206003019080519060200190610a94929190610af6565b50816005600060065481526020019081526020016000206004019080519060200190610ac1929190610af6565b50806005600060065481526020019081526020016000206005019080519060200190610aee929190610af6565b505050505050565b828054610b02906110ac565b90600052602060002090601f016020900481019282610b245760008555610b6b565b82601f10610b3d57805160ff1916838001178555610b6b565b82800160010185558215610b6b579182015b82811115610b6a578251825591602001919060010190610b4f565b5b509050610b789190610b7c565b5090565b5b80821115610b95576000816000905550600101610b7d565b5090565b6000610bac610ba784610f79565b610f54565b905082815260208101848484011115610bc857610bc76111a1565b5b610bd384828561106a565b509392505050565b600081359050610bea816111c1565b92915050565b600082601f830112610c0557610c0461119c565b5b8135610c15848260208601610b99565b91505092915050565b600081359050610c2d816111d8565b92915050565b60008060408385031215610c4a57610c496111ab565b5b6000610c5885828601610bdb565b9250506020610c6985828601610c1e565b9150509250929050565b600060208284031215610c8957610c886111ab565b5b600082013567ffffffffffffffff811115610ca757610ca66111a6565b5b610cb384828501610bf0565b91505092915050565b600080600080600060a08688031215610cd857610cd76111ab565b5b600086013567ffffffffffffffff811115610cf657610cf56111a6565b5b610d0288828901610bf0565b955050602086013567ffffffffffffffff811115610d2357610d226111a6565b5b610d2f88828901610bf0565b945050604086013567ffffffffffffffff811115610d5057610d4f6111a6565b5b610d5c88828901610bf0565b935050606086013567ffffffffffffffff811115610d7d57610d7c6111a6565b5b610d8988828901610bf0565b925050608086013567ffffffffffffffff811115610daa57610da96111a6565b5b610db688828901610bf0565b9150509295509295909350565b600060208284031215610dd957610dd86111ab565b5b6000610de784828501610c1e565b91505092915050565b610df98161101c565b82525050565b6000610e0a82610faa565b610e148185610fb5565b9350610e24818560208601611079565b610e2d816111b0565b840191505092915050565b610e4181611060565b82525050565b6000608082019050610e5c6000830187610df0565b610e696020830186610e38565b610e766040830185610e38565b8181036060830152610e888184610dff565b905095945050505050565b60006020820190508181036000830152610ead8184610dff565b905092915050565b600060c0820190508181036000830152610ecf8189610dff565b90508181036020830152610ee38188610dff565b9050610ef26040830187610e38565b8181036060830152610f048186610dff565b90508181036080830152610f188185610dff565b905081810360a0830152610f2c8184610dff565b9050979650505050505050565b6000602082019050610f4e6000830184610e38565b92915050565b6000610f5e610f6f565b9050610f6a82826110de565b919050565b6000604051905090565b600067ffffffffffffffff821115610f9457610f9361116d565b5b610f9d826111b0565b9050602081019050919050565b600081519050919050565b600082825260208201905092915050565b6000610fd182611060565b9150610fdc83611060565b9250827fffffffffffffffffffffffffffffffffffffffffffffffffffffffffffffffff038211156110115761101061110f565b5b828201905092915050565b600061102782611040565b9050919050565b600061103982611040565b9050919050565b600073ffffffffffffffffffffffffffffffffffffffff82169050919050565b6000819050919050565b82818337600083830152505050565b60005b8381101561109757808201518184015260208101905061107c565b838111156110a6576000848401525b50505050565b600060028204905060018216806110c457607f821691505b602082108114156110d8576110d761113e565b5b50919050565b6110e7826111b0565b810181811067ffffffffffffffff821117156111065761110561116d565b5b80604052505050565b7f4e487b7100000000000000000000000000000000000000000000000000000000600052601160045260246000fd5b7f4e487b7100000000000000000000000000000000000000000000000000000000600052602260045260246000fd5b7f4e487b7100000000000000000000000000000000000000000000000000000000600052604160045260246000fd5b600080fd5b600080fd5b600080fd5b600080fd5b6000601f19601f8301169050919050565b6111ca8161102e565b81146111d557600080fd5b50565b6111e181611060565b81146111ec57600080fd5b5056fea2646970667358221220ee2e86b89893200c849b94afcdf52ce482d17417605b89324f017dc975aee91d64736f6c63430008070033a26469706673582212205427a8ef47cf5713b72902e16c4f5c794f7f5de537e336cb788a8e6e5f61adb764736f6c63430008070033",
  "immutableReferences": {},
  "source": "// SPDX-License-Identifier: MIT\r\npragma solidity ^0.8.7;\r\npragma experimental ABIEncoderV2;\r\nimport './Mia.sol';\r\n\r\ncontract Guer {\r\n\r\n    address docId;\r\n    mapping(address => address[]) MiasByUser;\r\n    address payable ourWallet;\r\n    constructor() payable {\r\n        ourWallet = payable(msg.sender);\r\n    }\r\n\r\n    event keyData(\r\n        address indexed _from, //assume sender = key1\r\n        bytes32 indexed _key1,\r\n        bytes32 indexed _key2  //in the frontend code, if your address doesn't match sender, then key 2 is yours.\r\n    );\r\n\r\n    function createNFT() public payable {\r\n        Mia a = new Mia();\r\n        MiasByUser[msg.sender].push(address(a));\r\n    }\r\n\r\n    function doPayRoyalty() public payable returns(bool){\r\n        if (msg.value >= .0001 ether)\r\n        {\r\n            ourWallet.transfer(msg.value);\r\n            return true;\r\n        }\r\n        else {\r\n            return false;\r\n        }\r\n    }\r\n\r\n    function getUserNFTs() public view returns (address[] memory){\r\n        return MiasByUser[msg.sender];\r\n    }\r\n\r\n    function getNFTInfo(address payable docAddress) public view returns (address, uint, uint, string memory){\r\n        return Mia(docAddress).getMia();\r\n    }\r\n\r\n    function getGuerOwnerAddress() public view returns(address){\r\n        return ourWallet;\r\n    }\r\n\r\n    function getKeystore(address payable docAddress) public view returns (string memory) {\r\n        return Mia(docAddress).getKeystore();\r\n    }\r\n\r\n    function getEncrypted(address payable docAddress, uint _id) public view returns (string memory, string memory, uint, string memory, string memory, string memory) {\r\n        return Mia(docAddress).getEncryptedDetails(_id);\r\n    }\r\n    \r\n    function doAddKeystore(address payable docAddress, string memory _hash) public {\r\n        Mia(docAddress).addKeystore(_hash);\r\n    }\r\n\r\n    function doAddEncrypted(address payable docAddress, string memory _location, string memory _name, string memory _filetype, string memory _companion, string memory _usage) public {\r\n        Mia(docAddress).addEncrypted(_location, _name, _filetype, _companion, _usage);\r\n    }\r\n    \r\n    function postKeyData(address _sender, bytes32 _key1, bytes32 _key2) external {\r\n        emit keyData(_sender, _key1, _key2);\r\n    }\r\n\r\n    function doTransferFunds(address payable docAddress, address payable _receiver, uint256 _amount) public payable {\r\n        Mia(docAddress).transferFunds(_receiver, _amount);\r\n    }\r\n\r\n}\r\n",
  "sourcePath": "C:\\Projects\\guerpublic\\contracts\\Guer.sol",
  "compiler": {
    "name": "solc",
    "version": "0.8.7+commit.e28d00a7.Emscripten.clang"
  },
  "schemaVersion": "3.4.3",
  "updatedAt": "2021-08-30T21:50:35.899Z",
  "networkType": "ethereum",
  "devdoc": {
    "kind": "dev",
    "methods": {},
    "version": 1
  },
  "userdoc": {
    "kind": "user",
    "methods": {},
    "version": 1
  }
}