{
  "contractName": "Mia",
  "abi": [
    {
      "inputs": [],
      "stateMutability": "payable",
      "type": "constructor"
    },
    {
      "stateMutability": "payable",
      "type": "fallback"
    },
    {
      "inputs": [],
      "name": "encryptedCount",
      "outputs": [
        {
          "internalType": "uint256",
          "name": "",
          "type": "uint256"
        }
      ],
      "stateMutability": "view",
      "type": "function"
    },
    {
      "inputs": [
        {
          "internalType": "uint256",
          "name": "",
          "type": "uint256"
        }
      ],
      "name": "encrypteds",
      "outputs": [
        {
          "internalType": "string",
          "name": "location",
          "type": "string"
        },
        {
          "internalType": "string",
          "name": "name",
          "type": "string"
        },
        {
          "internalType": "uint256",
          "name": "date",
          "type": "uint256"
        },
        {
          "internalType": "string",
          "name": "filetype",
          "type": "string"
        },
        {
          "internalType": "string",
          "name": "companion",
          "type": "string"
        },
        {
          "internalType": "string",
          "name": "usage",
          "type": "string"
        }
      ],
      "stateMutability": "view",
      "type": "function"
    },
    {
      "stateMutability": "payable",
      "type": "receive"
    },
    {
      "inputs": [],
      "name": "getKeystore",
      "outputs": [
        {
          "internalType": "string",
          "name": "",
          "type": "string"
        }
      ],
      "stateMutability": "view",
      "type": "function"
    },
    {
      "inputs": [
        {
          "internalType": "uint256",
          "name": "_id",
          "type": "uint256"
        }
      ],
      "name": "getEncryptedDetails",
      "outputs": [
        {
          "internalType": "string",
          "name": "",
          "type": "string"
        },
        {
          "internalType": "string",
          "name": "",
          "type": "string"
        },
        {
          "internalType": "uint256",
          "name": "",
          "type": "uint256"
        },
        {
          "internalType": "string",
          "name": "",
          "type": "string"
        },
        {
          "internalType": "string",
          "name": "",
          "type": "string"
        },
        {
          "internalType": "string",
          "name": "",
          "type": "string"
        }
      ],
      "stateMutability": "view",
      "type": "function"
    },
    {
      "inputs": [],
      "name": "getMia",
      "outputs": [
        {
          "internalType": "address",
          "name": "",
          "type": "address"
        },
        {
          "internalType": "uint256",
          "name": "",
          "type": "uint256"
        },
        {
          "internalType": "uint256",
          "name": "",
          "type": "uint256"
        },
        {
          "internalType": "string",
          "name": "",
          "type": "string"
        }
      ],
      "stateMutability": "view",
      "type": "function"
    },
    {
      "inputs": [
        {
          "internalType": "string",
          "name": "_hash",
          "type": "string"
        }
      ],
      "name": "addKeystore",
      "outputs": [],
      "stateMutability": "nonpayable",
      "type": "function"
    },
    {
      "inputs": [
        {
          "internalType": "string",
          "name": "_location",
          "type": "string"
        },
        {
          "internalType": "string",
          "name": "_name",
          "type": "string"
        },
        {
          "internalType": "string",
          "name": "_filetype",
          "type": "string"
        },
        {
          "internalType": "string",
          "name": "_companion",
          "type": "string"
        },
        {
          "internalType": "string",
          "name": "_usage",
          "type": "string"
        }
      ],
      "name": "addEncrypted",
      "outputs": [],
      "stateMutability": "nonpayable",
      "type": "function"
    },
    {
      "inputs": [
        {
          "internalType": "address payable",
          "name": "_receiver",
          "type": "address"
        },
        {
          "internalType": "uint256",
          "name": "_amount",
          "type": "uint256"
        }
      ],
      "name": "transferFunds",
      "outputs": [],
      "stateMutability": "pure",
      "type": "function"
    }
  ],
  "bytecode": "0x6080604052306000806101000a81548173ffffffffffffffffffffffffffffffffffffffff021916908373ffffffffffffffffffffffffffffffffffffffff1602179055504260018190555033600460006101000a81548173ffffffffffffffffffffffffffffffffffffffff021916908373ffffffffffffffffffffffffffffffffffffffff1602179055506112258061009b6000396000f3fe60806040526004361061008c576000357c010000000000000000000000000000000000000000000000000000000090048063527652bd1461009557806361091bce146100be578063651d9364146101005780636f6b52ec1461012b578063990dc9db14610156578063bbec47fc1461017f578063ca1beaf3146101c1578063eae2d3c4146101ef57610093565b3661009357005b005b3480156100a157600080fd5b506100bc60048036038101906100b79190610c73565b610218565b005b3480156100ca57600080fd5b506100e560048036038101906100e09190610dc3565b610232565b6040516100f796959493929190610eb5565b60405180910390f35b34801561010c57600080fd5b50610115610516565b6040516101229190610e93565b60405180910390f35b34801561013757600080fd5b506101406105a8565b60405161014d9190610f39565b60405180910390f35b34801561016257600080fd5b5061017d60048036038101906101789190610c33565b6105ae565b005b34801561018b57600080fd5b506101a660048036038101906101a19190610dc3565b6105b2565b6040516101b896959493929190610eb5565b60405180910390f35b3480156101cd57600080fd5b506101d6610912565b6040516101e69493929190610e47565b60405180910390f35b3480156101fb57600080fd5b5061021660048036038101906102119190610cbc565b6109dc565b005b806003908051906020019061022e929190610af6565b5050565b6005602052806000526040600020600091509050806000018054610255906110ac565b80601f0160208091040260200160405190810160405280929190818152602001828054610281906110ac565b80156102ce5780601f106102a3576101008083540402835291602001916102ce565b820191906000526020600020905b8154815290600101906020018083116102b157829003601f168201915b5050505050908060010180546102e3906110ac565b80601f016020809104026020016040519081016040528092919081815260200182805461030f906110ac565b801561035c5780601f106103315761010080835404028352916020019161035c565b820191906000526020600020905b81548152906001019060200180831161033f57829003601f168201915b505050505090806002015490806003018054610377906110ac565b80601f01602080910402602001604051908101604052809291908181526020018280546103a3906110ac565b80156103f05780601f106103c5576101008083540402835291602001916103f0565b820191906000526020600020905b8154815290600101906020018083116103d357829003601f168201915b505050505090806004018054610405906110ac565b80601f0160208091040260200160405190810160405280929190818152602001828054610431906110ac565b801561047e5780601f106104535761010080835404028352916020019161047e565b820191906000526020600020905b81548152906001019060200180831161046157829003601f168201915b505050505090806005018054610493906110ac565b80601f01602080910402602001604051908101604052809291908181526020018280546104bf906110ac565b801561050c5780601f106104e15761010080835404028352916020019161050c565b820191906000526020600020905b8154815290600101906020018083116104ef57829003601f168201915b5050505050905086565b606060038054610525906110ac565b80601f0160208091040260200160405190810160405280929190818152602001828054610551906110ac565b801561059e5780601f106105735761010080835404028352916020019161059e565b820191906000526020600020905b81548152906001019060200180831161058157829003601f168201915b5050505050905090565b60065481565b5050565b606080600060608060606005600088815260200190815260200160002060000160056000898152602001908152602001600020600101600560008a815260200190815260200160002060020154600560008b8152602001908152602001600020600301600560008c8152602001908152602001600020600401600560008d815260200190815260200160002060050185805461064d906110ac565b80601f0160208091040260200160405190810160405280929190818152602001828054610679906110ac565b80156106c65780601f1061069b576101008083540402835291602001916106c6565b820191906000526020600020905b8154815290600101906020018083116106a957829003601f168201915b505050505095508480546106d9906110ac565b80601f0160208091040260200160405190810160405280929190818152602001828054610705906110ac565b80156107525780601f1061072757610100808354040283529160200191610752565b820191906000526020600020905b81548152906001019060200180831161073557829003601f168201915b50505050509450828054610765906110ac565b80601f0160208091040260200160405190810160405280929190818152602001828054610791906110ac565b80156107de5780601f106107b3576101008083540402835291602001916107de565b820191906000526020600020905b8154815290600101906020018083116107c157829003601f168201915b505050505092508180546107f1906110ac565b80601f016020809104026020016040519081016040528092919081815260200182805461081d906110ac565b801561086a5780601f1061083f5761010080835404028352916020019161086a565b820191906000526020600020905b81548152906001019060200180831161084d57829003601f168201915b5050505050915080805461087d906110ac565b80601f01602080910402602001604051908101604052809291908181526020018280546108a9906110ac565b80156108f65780601f106108cb576101008083540402835291602001916108f6565b820191906000526020600020905b8154815290600101906020018083116108d957829003601f168201915b5050505050905095509550955095509550955091939550919395565b6000806000606060008054906101000a900473ffffffffffffffffffffffffffffffffffffffff16600154600654600380805461094e906110ac565b80601f016020809104026020016040519081016040528092919081815260200182805461097a906110ac565b80156109c75780601f1061099c576101008083540402835291602001916109c7565b820191906000526020600020905b8154815290600101906020018083116109aa57829003601f168201915b50505050509050935093509350935090919293565b60016006546109eb9190610fc6565b600681905550846005600060065481526020019081526020016000206000019080519060200190610a1d929190610af6565b50836005600060065481526020019081526020016000206001019080519060200190610a4a929190610af6565b504260056000600654815260200190815260200160002060020181905550826005600060065481526020019081526020016000206003019080519060200190610a94929190610af6565b50816005600060065481526020019081526020016000206004019080519060200190610ac1929190610af6565b50806005600060065481526020019081526020016000206005019080519060200190610aee929190610af6565b505050505050565b828054610b02906110ac565b90600052602060002090601f016020900481019282610b245760008555610b6b565b82601f10610b3d57805160ff1916838001178555610b6b565b82800160010185558215610b6b579182015b82811115610b6a578251825591602001919060010190610b4f565b5b509050610b789190610b7c565b5090565b5b80821115610b95576000816000905550600101610b7d565b5090565b6000610bac610ba784610f79565b610f54565b905082815260208101848484011115610bc857610bc76111a1565b5b610bd384828561106a565b509392505050565b600081359050610bea816111c1565b92915050565b600082601f830112610c0557610c0461119c565b5b8135610c15848260208601610b99565b91505092915050565b600081359050610c2d816111d8565b92915050565b60008060408385031215610c4a57610c496111ab565b5b6000610c5885828601610bdb565b9250506020610c6985828601610c1e565b9150509250929050565b600060208284031215610c8957610c886111ab565b5b600082013567ffffffffffffffff811115610ca757610ca66111a6565b5b610cb384828501610bf0565b91505092915050565b600080600080600060a08688031215610cd857610cd76111ab565b5b600086013567ffffffffffffffff811115610cf657610cf56111a6565b5b610d0288828901610bf0565b955050602086013567ffffffffffffffff811115610d2357610d226111a6565b5b610d2f88828901610bf0565b945050604086013567ffffffffffffffff811115610d5057610d4f6111a6565b5b610d5c88828901610bf0565b935050606086013567ffffffffffffffff811115610d7d57610d7c6111a6565b5b610d8988828901610bf0565b925050608086013567ffffffffffffffff811115610daa57610da96111a6565b5b610db688828901610bf0565b9150509295509295909350565b600060208284031215610dd957610dd86111ab565b5b6000610de784828501610c1e565b91505092915050565b610df98161101c565b82525050565b6000610e0a82610faa565b610e148185610fb5565b9350610e24818560208601611079565b610e2d816111b0565b840191505092915050565b610e4181611060565b82525050565b6000608082019050610e5c6000830187610df0565b610e696020830186610e38565b610e766040830185610e38565b8181036060830152610e888184610dff565b905095945050505050565b60006020820190508181036000830152610ead8184610dff565b905092915050565b600060c0820190508181036000830152610ecf8189610dff565b90508181036020830152610ee38188610dff565b9050610ef26040830187610e38565b8181036060830152610f048186610dff565b90508181036080830152610f188185610dff565b905081810360a0830152610f2c8184610dff565b9050979650505050505050565b6000602082019050610f4e6000830184610e38565b92915050565b6000610f5e610f6f565b9050610f6a82826110de565b919050565b6000604051905090565b600067ffffffffffffffff821115610f9457610f9361116d565b5b610f9d826111b0565b9050602081019050919050565b600081519050919050565b600082825260208201905092915050565b6000610fd182611060565b9150610fdc83611060565b9250827fffffffffffffffffffffffffffffffffffffffffffffffffffffffffffffffff038211156110115761101061110f565b5b828201905092915050565b600061102782611040565b9050919050565b600061103982611040565b9050919050565b600073ffffffffffffffffffffffffffffffffffffffff82169050919050565b6000819050919050565b82818337600083830152505050565b60005b8381101561109757808201518184015260208101905061107c565b838111156110a6576000848401525b50505050565b600060028204905060018216806110c457607f821691505b602082108114156110d8576110d761113e565b5b50919050565b6110e7826111b0565b810181811067ffffffffffffffff821117156111065761110561116d565b5b80604052505050565b7f4e487b7100000000000000000000000000000000000000000000000000000000600052601160045260246000fd5b7f4e487b7100000000000000000000000000000000000000000000000000000000600052602260045260246000fd5b7f4e487b7100000000000000000000000000000000000000000000000000000000600052604160045260246000fd5b600080fd5b600080fd5b600080fd5b600080fd5b6000601f19601f8301169050919050565b6111ca8161102e565b81146111d557600080fd5b50565b6111e181611060565b81146111ec57600080fd5b5056fea2646970667358221220ee2e86b89893200c849b94afcdf52ce482d17417605b89324f017dc975aee91d64736f6c63430008070033",
  "immutableReferences": {},
  "source": "// SPDX-License-Identifier: MIT\r\npragma solidity ^0.8.7;\r\npragma experimental ABIEncoderV2;\r\n\r\ncontract Mia {\r\n\r\n    fallback() external payable {}\r\n    receive() external payable {}\r\n\r\n    address id;\r\n    uint creationDate;\r\n    address[] myAddresses;\r\n    string keystore;\r\n    address creator;\r\n\r\n    mapping(uint => EncryptedFile) public encrypteds;\r\n    uint public encryptedCount;\r\n\r\n    struct EncryptedFile {\r\n        string location;\r\n        string name;\r\n        uint date;\r\n        string filetype;\r\n        string companion;\r\n        string usage;\r\n    }\r\n\r\n    constructor() payable {\r\n        id = address(this);\r\n        creationDate = block.timestamp;\r\n        creator = msg.sender;\r\n    }\r\n\r\n    function getKeystore() public view returns (string memory) {\r\n        return (keystore);\r\n    }\r\n\r\n    function getEncryptedDetails(uint _id) public view returns (string memory, string memory, uint, string memory, string memory, string memory) {\r\n        return (encrypteds[_id].location, encrypteds[_id].name, encrypteds[_id].date, encrypteds[_id].filetype, encrypteds[_id].companion, encrypteds[_id].usage);\r\n    }\r\n\r\n    function getMia() public view returns (address, uint, uint, string memory) {\r\n        return (id, creationDate, encryptedCount, keystore);\r\n    }\r\n\r\n    function addKeystore(string memory _hash) public {\r\n        keystore = _hash;\r\n    }\r\n\r\n    function addEncrypted(string memory _location, string memory _name, string memory _filetype, string memory _companion, string memory _usage) public {\r\n        encryptedCount = encryptedCount + 1;\r\n        encrypteds[encryptedCount].location = _location;\r\n        encrypteds[encryptedCount].name = _name;\r\n        encrypteds[encryptedCount].date = block.timestamp;\r\n        encrypteds[encryptedCount].filetype = _filetype;\r\n        encrypteds[encryptedCount].companion = _companion;\r\n        encrypteds[encryptedCount].usage = _usage;\r\n    }\r\n\r\n    function transferFunds(address payable _receiver, uint256 _amount) pure external {\r\n        payable(_receiver).call{value:_amount};\r\n    }\r\n\r\n}",
  "sourcePath": "C:\\Projects\\guerpublic\\contracts\\Mia.sol",
  "compiler": {
    "name": "solc",
    "version": "0.8.7+commit.e28d00a7.Emscripten.clang"
  },
  "schemaVersion": "3.4.3",
  "updatedAt": "2021-08-31T20:47:46.188Z",
  "devdoc": {
    "kind": "dev",
    "methods": {},
    "version": 1
  },
  "userdoc": {
    "kind": "user",
    "methods": {},
    "version": 1
  }
}