{
  "contractName": "Mia",
  "abi": [
    {
      "inputs": [],
      "stateMutability": "payable",
      "type": "constructor"
    },
    {
      "stateMutability": "payable",
      "type": "fallback"
    },
    {
      "inputs": [],
      "name": "encryptedCount",
      "outputs": [
        {
          "internalType": "uint256",
          "name": "",
          "type": "uint256"
        }
      ],
      "stateMutability": "view",
      "type": "function"
    },
    {
      "inputs": [
        {
          "internalType": "uint256",
          "name": "",
          "type": "uint256"
        }
      ],
      "name": "encrypteds",
      "outputs": [
        {
          "internalType": "string",
          "name": "location",
          "type": "string"
        },
        {
          "internalType": "string",
          "name": "name",
          "type": "string"
        },
        {
          "internalType": "uint256",
          "name": "date",
          "type": "uint256"
        },
        {
          "internalType": "string",
          "name": "filetype",
          "type": "string"
        },
        {
          "internalType": "string",
          "name": "companion",
          "type": "string"
        },
        {
          "internalType": "string",
          "name": "usage",
          "type": "string"
        }
      ],
      "stateMutability": "view",
      "type": "function"
    },
    {
      "stateMutability": "payable",
      "type": "receive"
    },
    {
      "inputs": [],
      "name": "getKeystore",
      "outputs": [
        {
          "internalType": "string",
          "name": "",
          "type": "string"
        }
      ],
      "stateMutability": "view",
      "type": "function"
    },
    {
      "inputs": [
        {
          "internalType": "uint256",
          "name": "_id",
          "type": "uint256"
        }
      ],
      "name": "getEncryptedDetails",
      "outputs": [
        {
          "internalType": "string",
          "name": "",
          "type": "string"
        },
        {
          "internalType": "string",
          "name": "",
          "type": "string"
        },
        {
          "internalType": "uint256",
          "name": "",
          "type": "uint256"
        },
        {
          "internalType": "string",
          "name": "",
          "type": "string"
        },
        {
          "internalType": "string",
          "name": "",
          "type": "string"
        },
        {
          "internalType": "string",
          "name": "",
          "type": "string"
        }
      ],
      "stateMutability": "view",
      "type": "function"
    },
    {
      "inputs": [],
      "name": "getMia",
      "outputs": [
        {
          "internalType": "address",
          "name": "",
          "type": "address"
        },
        {
          "internalType": "uint256",
          "name": "",
          "type": "uint256"
        },
        {
          "internalType": "uint256",
          "name": "",
          "type": "uint256"
        },
        {
          "internalType": "string",
          "name": "",
          "type": "string"
        }
      ],
      "stateMutability": "view",
      "type": "function"
    },
    {
      "inputs": [],
      "name": "getEncryptedCount",
      "outputs": [
        {
          "internalType": "uint256",
          "name": "",
          "type": "uint256"
        }
      ],
      "stateMutability": "view",
      "type": "function"
    },
    {
      "inputs": [
        {
          "internalType": "string",
          "name": "_hash",
          "type": "string"
        }
      ],
      "name": "addKeystore",
      "outputs": [],
      "stateMutability": "nonpayable",
      "type": "function"
    },
    {
      "inputs": [
        {
          "internalType": "string",
          "name": "_location",
          "type": "string"
        },
        {
          "internalType": "string",
          "name": "_name",
          "type": "string"
        },
        {
          "internalType": "string",
          "name": "_filetype",
          "type": "string"
        },
        {
          "internalType": "string",
          "name": "_companion",
          "type": "string"
        },
        {
          "internalType": "string",
          "name": "_usage",
          "type": "string"
        }
      ],
      "name": "addEncrypted",
      "outputs": [],
      "stateMutability": "nonpayable",
      "type": "function"
    },
    {
      "inputs": [
        {
          "internalType": "address payable",
          "name": "_receiver",
          "type": "address"
        },
        {
          "internalType": "uint256",
          "name": "_amount",
          "type": "uint256"
        }
      ],
      "name": "transferFunds",
      "outputs": [],
      "stateMutability": "pure",
      "type": "function"
    }
  ],
  "bytecode": "0x6080604052306000806101000a81548173ffffffffffffffffffffffffffffffffffffffff021916908373ffffffffffffffffffffffffffffffffffffffff1602179055504260018190555033600460006101000a81548173ffffffffffffffffffffffffffffffffffffffff021916908373ffffffffffffffffffffffffffffffffffffffff1602179055506112658061009b6000396000f3fe608060405260043610610097576000357c010000000000000000000000000000000000000000000000000000000090048063527652bd146100a057806361091bce146100c9578063651d93641461010b5780636f6b52ec14610136578063990dc9db14610161578063bbec47fc1461018a578063c4deca73146101cc578063ca1beaf3146101f7578063eae2d3c4146102255761009e565b3661009e57005b005b3480156100ac57600080fd5b506100c760048036038101906100c29190610cb3565b61024e565b005b3480156100d557600080fd5b506100f060048036038101906100eb9190610e03565b610268565b60405161010296959493929190610ef5565b60405180910390f35b34801561011757600080fd5b5061012061054c565b60405161012d9190610ed3565b60405180910390f35b34801561014257600080fd5b5061014b6105de565b6040516101589190610f79565b60405180910390f35b34801561016d57600080fd5b5061018860048036038101906101839190610c73565b6105e4565b005b34801561019657600080fd5b506101b160048036038101906101ac9190610e03565b6105e8565b6040516101c396959493929190610ef5565b60405180910390f35b3480156101d857600080fd5b506101e1610948565b6040516101ee9190610f79565b60405180910390f35b34801561020357600080fd5b5061020c610952565b60405161021c9493929190610e87565b60405180910390f35b34801561023157600080fd5b5061024c60048036038101906102479190610cfc565b610a1c565b005b8060039080519060200190610264929190610b36565b5050565b600560205280600052604060002060009150905080600001805461028b906110ec565b80601f01602080910402602001604051908101604052809291908181526020018280546102b7906110ec565b80156103045780601f106102d957610100808354040283529160200191610304565b820191906000526020600020905b8154815290600101906020018083116102e757829003601f168201915b505050505090806001018054610319906110ec565b80601f0160208091040260200160405190810160405280929190818152602001828054610345906110ec565b80156103925780601f1061036757610100808354040283529160200191610392565b820191906000526020600020905b81548152906001019060200180831161037557829003601f168201915b5050505050908060020154908060030180546103ad906110ec565b80601f01602080910402602001604051908101604052809291908181526020018280546103d9906110ec565b80156104265780601f106103fb57610100808354040283529160200191610426565b820191906000526020600020905b81548152906001019060200180831161040957829003601f168201915b50505050509080600401805461043b906110ec565b80601f0160208091040260200160405190810160405280929190818152602001828054610467906110ec565b80156104b45780601f10610489576101008083540402835291602001916104b4565b820191906000526020600020905b81548152906001019060200180831161049757829003601f168201915b5050505050908060050180546104c9906110ec565b80601f01602080910402602001604051908101604052809291908181526020018280546104f5906110ec565b80156105425780601f1061051757610100808354040283529160200191610542565b820191906000526020600020905b81548152906001019060200180831161052557829003601f168201915b5050505050905086565b60606003805461055b906110ec565b80601f0160208091040260200160405190810160405280929190818152602001828054610587906110ec565b80156105d45780601f106105a9576101008083540402835291602001916105d4565b820191906000526020600020905b8154815290600101906020018083116105b757829003601f168201915b5050505050905090565b60065481565b5050565b606080600060608060606005600088815260200190815260200160002060000160056000898152602001908152602001600020600101600560008a815260200190815260200160002060020154600560008b8152602001908152602001600020600301600560008c8152602001908152602001600020600401600560008d8152602001908152602001600020600501858054610683906110ec565b80601f01602080910402602001604051908101604052809291908181526020018280546106af906110ec565b80156106fc5780601f106106d1576101008083540402835291602001916106fc565b820191906000526020600020905b8154815290600101906020018083116106df57829003601f168201915b5050505050955084805461070f906110ec565b80601f016020809104026020016040519081016040528092919081815260200182805461073b906110ec565b80156107885780601f1061075d57610100808354040283529160200191610788565b820191906000526020600020905b81548152906001019060200180831161076b57829003601f168201915b5050505050945082805461079b906110ec565b80601f01602080910402602001604051908101604052809291908181526020018280546107c7906110ec565b80156108145780601f106107e957610100808354040283529160200191610814565b820191906000526020600020905b8154815290600101906020018083116107f757829003601f168201915b50505050509250818054610827906110ec565b80601f0160208091040260200160405190810160405280929190818152602001828054610853906110ec565b80156108a05780601f10610875576101008083540402835291602001916108a0565b820191906000526020600020905b81548152906001019060200180831161088357829003601f168201915b505050505091508080546108b3906110ec565b80601f01602080910402602001604051908101604052809291908181526020018280546108df906110ec565b801561092c5780601f106109015761010080835404028352916020019161092c565b820191906000526020600020905b81548152906001019060200180831161090f57829003601f168201915b5050505050905095509550955095509550955091939550919395565b6000600654905090565b6000806000606060008054906101000a900473ffffffffffffffffffffffffffffffffffffffff16600154600654600380805461098e906110ec565b80601f01602080910402602001604051908101604052809291908181526020018280546109ba906110ec565b8015610a075780601f106109dc57610100808354040283529160200191610a07565b820191906000526020600020905b8154815290600101906020018083116109ea57829003601f168201915b50505050509050935093509350935090919293565b6001600654610a2b9190611006565b600681905550846005600060065481526020019081526020016000206000019080519060200190610a5d929190610b36565b50836005600060065481526020019081526020016000206001019080519060200190610a8a929190610b36565b504260056000600654815260200190815260200160002060020181905550826005600060065481526020019081526020016000206003019080519060200190610ad4929190610b36565b50816005600060065481526020019081526020016000206004019080519060200190610b01929190610b36565b50806005600060065481526020019081526020016000206005019080519060200190610b2e929190610b36565b505050505050565b828054610b42906110ec565b90600052602060002090601f016020900481019282610b645760008555610bab565b82601f10610b7d57805160ff1916838001178555610bab565b82800160010185558215610bab579182015b82811115610baa578251825591602001919060010190610b8f565b5b509050610bb89190610bbc565b5090565b5b80821115610bd5576000816000905550600101610bbd565b5090565b6000610bec610be784610fb9565b610f94565b905082815260208101848484011115610c0857610c076111e1565b5b610c138482856110aa565b509392505050565b600081359050610c2a81611201565b92915050565b600082601f830112610c4557610c446111dc565b5b8135610c55848260208601610bd9565b91505092915050565b600081359050610c6d81611218565b92915050565b60008060408385031215610c8a57610c896111eb565b5b6000610c9885828601610c1b565b9250506020610ca985828601610c5e565b9150509250929050565b600060208284031215610cc957610cc86111eb565b5b600082013567ffffffffffffffff811115610ce757610ce66111e6565b5b610cf384828501610c30565b91505092915050565b600080600080600060a08688031215610d1857610d176111eb565b5b600086013567ffffffffffffffff811115610d3657610d356111e6565b5b610d4288828901610c30565b955050602086013567ffffffffffffffff811115610d6357610d626111e6565b5b610d6f88828901610c30565b945050604086013567ffffffffffffffff811115610d9057610d8f6111e6565b5b610d9c88828901610c30565b935050606086013567ffffffffffffffff811115610dbd57610dbc6111e6565b5b610dc988828901610c30565b925050608086013567ffffffffffffffff811115610dea57610de96111e6565b5b610df688828901610c30565b9150509295509295909350565b600060208284031215610e1957610e186111eb565b5b6000610e2784828501610c5e565b91505092915050565b610e398161105c565b82525050565b6000610e4a82610fea565b610e548185610ff5565b9350610e648185602086016110b9565b610e6d816111f0565b840191505092915050565b610e81816110a0565b82525050565b6000608082019050610e9c6000830187610e30565b610ea96020830186610e78565b610eb66040830185610e78565b8181036060830152610ec88184610e3f565b905095945050505050565b60006020820190508181036000830152610eed8184610e3f565b905092915050565b600060c0820190508181036000830152610f0f8189610e3f565b90508181036020830152610f238188610e3f565b9050610f326040830187610e78565b8181036060830152610f448186610e3f565b90508181036080830152610f588185610e3f565b905081810360a0830152610f6c8184610e3f565b9050979650505050505050565b6000602082019050610f8e6000830184610e78565b92915050565b6000610f9e610faf565b9050610faa828261111e565b919050565b6000604051905090565b600067ffffffffffffffff821115610fd457610fd36111ad565b5b610fdd826111f0565b9050602081019050919050565b600081519050919050565b600082825260208201905092915050565b6000611011826110a0565b915061101c836110a0565b9250827fffffffffffffffffffffffffffffffffffffffffffffffffffffffffffffffff038211156110515761105061114f565b5b828201905092915050565b600061106782611080565b9050919050565b600061107982611080565b9050919050565b600073ffffffffffffffffffffffffffffffffffffffff82169050919050565b6000819050919050565b82818337600083830152505050565b60005b838110156110d75780820151818401526020810190506110bc565b838111156110e6576000848401525b50505050565b6000600282049050600182168061110457607f821691505b602082108114156111185761111761117e565b5b50919050565b611127826111f0565b810181811067ffffffffffffffff82111715611146576111456111ad565b5b80604052505050565b7f4e487b7100000000000000000000000000000000000000000000000000000000600052601160045260246000fd5b7f4e487b7100000000000000000000000000000000000000000000000000000000600052602260045260246000fd5b7f4e487b7100000000000000000000000000000000000000000000000000000000600052604160045260246000fd5b600080fd5b600080fd5b600080fd5b600080fd5b6000601f19601f8301169050919050565b61120a8161106e565b811461121557600080fd5b50565b611221816110a0565b811461122c57600080fd5b5056fea264697066735822122032bf84a2a458ee40d1eee7a6151bf5b8acb6697f6124e72e5ab6fb90e14907ce64736f6c63430008070033",
  "immutableReferences": {},
  "source": "// SPDX-License-Identifier: MIT\r\npragma solidity ^0.8.7;\r\npragma experimental ABIEncoderV2;\r\n\r\ncontract Mia {\r\n\r\n    fallback() external payable {}\r\n    receive() external payable {}\r\n\r\n    address id;\r\n    uint creationDate;\r\n    address[] myAddresses;\r\n    string keystore;\r\n    address creator;\r\n\r\n    mapping(uint => EncryptedFile) public encrypteds;\r\n    uint public encryptedCount;\r\n\r\n    struct EncryptedFile {\r\n        string location;\r\n        string name;\r\n        uint date;\r\n        string filetype;\r\n        string companion;\r\n        string usage;\r\n    }\r\n\r\n    constructor() payable {\r\n        id = address(this);\r\n        creationDate = block.timestamp;\r\n        creator = msg.sender;\r\n    }\r\n\r\n    function getKeystore() public view returns (string memory) {\r\n        return (keystore);\r\n    }\r\n\r\n    function getEncryptedDetails(uint _id) public view returns (string memory, string memory, uint, string memory, string memory, string memory) {\r\n        return (encrypteds[_id].location, encrypteds[_id].name, encrypteds[_id].date, encrypteds[_id].filetype, encrypteds[_id].companion, encrypteds[_id].usage);\r\n    }\r\n\r\n    function getMia() public view returns (address, uint, uint, string memory) {\r\n        return (id, creationDate, encryptedCount, keystore);\r\n    }\r\n\r\n    function getEncryptedCount() public view returns (uint) {\r\n        return (encryptedCount);\r\n    }\r\n\r\n    function addKeystore(string memory _hash) public {\r\n        keystore = _hash;\r\n    }\r\n\r\n    function addEncrypted(string memory _location, string memory _name, string memory _filetype, string memory _companion, string memory _usage) public {\r\n        encryptedCount = encryptedCount + 1;\r\n        encrypteds[encryptedCount].location = _location;\r\n        encrypteds[encryptedCount].name = _name;\r\n        encrypteds[encryptedCount].date = block.timestamp;\r\n        encrypteds[encryptedCount].filetype = _filetype;\r\n        encrypteds[encryptedCount].companion = _companion;\r\n        encrypteds[encryptedCount].usage = _usage;\r\n    }\r\n\r\n    function transferFunds(address payable _receiver, uint256 _amount) pure external {\r\n        payable(_receiver).call{value:_amount};\r\n    }\r\n\r\n}",
  "sourcePath": "C:\\Projects\\guerpublic\\contracts\\Mia.sol",
  "compiler": {
    "name": "solc",
    "version": "0.8.7+commit.e28d00a7.Emscripten.clang"
  },
  "schemaVersion": "3.4.3",
  "updatedAt": "2021-12-18T08:36:18.204Z",
  "devdoc": {
    "kind": "dev",
    "methods": {},
    "version": 1
  },
  "userdoc": {
    "kind": "user",
    "methods": {},
    "version": 1
  }
}